:100000000CC027C026C025C024C023C022C021C0E8
:1000100020C01FC01EC01DC01CC011241FBECFE5C4
:10002000D2E0DEBFCDBF10E0A0E6B0E0E2EAF1E052
:1000300003C0C89531960D92A036B107D1F710E0F4
:10004000A0E6B0E001C01D92A036B107E1F769D08B
:10005000A6C0D6CF00C000C000C000C000C000C015
:10006000000008958C988D989498959808958C9A8E
:10007000F1DF1DD008958D9AEDDF8C98EBDF8D9820
:10008000E9DF8C9AE7DF13D00895082E8C9AE2DF1F
:10009000802D0DD0882311F002D0F8CF08958D9ACD
:1000A0008C9AD8DF8D98D6DF8C98D4DF0895089489
:1000B000881F01C0880F59F08D9A18F400008C98A1
:1000C00002C08C9A00C0C6DF8D98C4DFF3CF8D9A32
:1000D0008C98C0DF8D98859BFECF8827849981E01E
:1000E000B9DF99270895882701C081E071E08D9AD2
:1000F0008C98B0DF8D98AEDF859BFECF8894849975
:100100000894771FA0F78D9A813011F08C9801C068
:100110008C9AA0DF8D98859BFECF9CDF872F992737
:100120000895CF93DF930F92CDB7DEB78FEF87BBE4
:1001300088BB98DF82EA9BDF882319F0B0DF18BA0A
:100140002DC085E0B4DF85E7B2DFA9DF82EA9DDF5D
:1001500085E0ADDF83EA8FDFC6DF8983A0DF898199
:10016000809588BB82EA91DF80E0A1DF80E79FDF96
:1001700081E79DDF82E79BDF84E799DF90DF82EAFA
:1001800084DF80E094DF83EA76DFAFDFAEDFADDFD0
:10019000AADF898384DF8981809588BBFFCFF894AB
:0201A000FFCF8F
:00000001FF
