:100000000C94B2000C94DA000C94DA000C94E21315
:100010000C940C140C9436140C94DA000C94DA0042
:100020000C94DA000C94DA000C94DA000C9461025F
:100030000C94DA000C94DA000C94DA000C94DA00D8
:100040000C9429180C94DA000C947C1A0C94CA1A9B
:100050000C94DA000C94DA000C94DA000C94DA00B8
:100060000C94DA000C94DA0000C2010001001100C7
:1000700011000C0000E100000A002500250021000D
:10008000009600001900390039003600127A00008D
:100090001F004600460044008070000022004D0012
:1000A0004D004A00004B00003600750075007200DC
:1000B000403800004A009C009C0099008025000008
:1000C0007200EC00EC00E900C0120000E900DA0167
:1000D000DA01D70160090000D701B603B603B30304
:1000E000B0040000B3036E076E076B0758020000F0
:1000F0006E07DC0EDC0ED80E2C010000DC0EC11DDC
:10010000C11DBE1D00000000240027002A000000C1
:100110000000250028002B0000000000230026001E
:10012000290004040404040404040202020202027A
:1001300003030303030301020408102040800102AB
:10014000040810200102040810200000000700022B
:100150000100000304060000000000000000480247
:10016000361C410211241FBECFEFD8E0DEBFCDBF49
:1001700012E0A0E0B1E0E0E3FEE402C005900D92E1
:10018000AC3BB107D9F714E0ACEBB2E001C01D9273
:10019000A53DB107E1F711E0C2E6D1E004C0229726
:1001A000FE010E94BD26CE35D107C9F70E948C1CE6
:1001B0000C940B270C940000FC0188279927E894E5
:1001C00021912032E9F3293010F02E30C8F32B3280
:1001D00041F02D3239F4689404C00E94FC01820F72
:1001E000911D219120532A30C0F31EF490958195E2
:1001F0009F4F08950F931F93CF93DF93182F092FCD
:10020000E82FF92FDF010D900020E9F7CD018E1BBB
:100210009F0B0E94F416EC01009721F0612F702FC4
:100220000E944101CE01DF91CF911F910F9108955E
:100230004CEB52E00E9471010895FB01DC0102C009
:1002400001900D9241505040D8F7089568177907F2
:1002500068F4FB01DC01E40FF51FA40FB51F02C019
:1002600002900E9241505040D8F708950C941D0111
:10027000FB01DC018D91019080190110D9F3990BDC
:100280000895FB01DC0101900D920020E1F7089533
:10029000FB01DC014150504048F001900D920020DC
:1002A000C9F701C01D9241505040E0F70895FB018D
:1002B00051915523A9F0BF01DC014D914517411122
:1002C000E1F759F4CD010190002049F04D9140151E
:1002D0004111C9F3FB014111EFCF81E090E001979B
:1002E0000895009731F4DA018D919C91009709F4FB
:1002F0000EC0DC01FB013D912191222319F0321740
:10030000C9F3FACF332331F4DA011D921C92882706
:10031000992708951197AF93BF93FB013D912191C8
:10032000321771F4332321F488279927119702C0DB
:100330001E921196FA01A193B0839F918F91089517
:10034000222369F7EACFA0E0B0E0E9EAF1E00C94FB
:10035000DE267C01EB018A01690109C0CE012196EC
:10036000F6010995F70181937F01015010400115B5
:100370001105A1F7CDB7DEB7E8E00C94FA26A0E0AE
:10038000B0E0E5ECF1E00C94DE26EC017B018A01A3
:10039000690109C0CE012196F70161917F01F60143
:1003A00009950150104001151105A1F7CDB7DEB731
:1003B000E8E00C94FA26FB019F01E8944230C4F077
:1003C0004532B4F44A3029F497FB1EF49095819598
:1003D0009F4F642F77270E94A726805D8A330CF0F9
:1003E000895D8193CB010097A1F716F45DE25193EB
:1003F0001082C9010C9404027AE0979F902D879F88
:10040000802D910D11240895DC01FC01672F71915D
:100410007723E1F7329704C07C916D9370836291EA
:10042000AE17BF07C8F308959C01F999FECF32BDFE
:1004300021BDF89A80B508959C01F999FECF1FBAA5
:1004400032BD21BD60BD0FB6F894FA9AF99A0FBE7D
:1004500008958130910559F46F5F7F4F89F48EEDD7
:1004600092E063E042E020E00E94C6160895892BE6
:1004700039F46F5F7F4F21F48EED92E00E945215A8
:10048000089580E090E06FEF7FEF0E9429020895C9
:1004900081E090E06FEF7FEF0E942902089585E0F0
:1004A00060E00E94D41988E060E00E94D4190895A9
:1004B00085E061E00E94D41988E061E00E94D419CF
:1004C00008951F920F920FB60F9211242F933F930E
:1004D0004F935F936F937F938F939F93AF93BF934C
:1004E000EF93FF9360E08091CB02882309F461E0F1
:1004F0006093CB0289E00E94D419FF91EF91BF91E4
:10050000AF919F918F917F916F915F914F913F91AB
:100510002F910F900FBE0F901F901895EFE6F0E00F
:1005200080818D7F808389E060E00E94D4190895E6
:10053000EF92FF920F931F937C010EED12E0C80122
:1005400060E071E00E941B1EC801B7014AE050E064
:100550000E94FC1D1F910F91FF90EF90089504C021
:100560008EED92E00E945B158EED92E00E947A156E
:1005700018161906ACF30895BF92CF92DF92EF924E
:10058000FF920F931F93C82EB92E69E071E00E946D
:1005900099220E9471187B018C0180E2D82E8EED89
:1005A00092E00E947A15181619065CF48EED92E01E
:1005B0000E945B15D82E8C2D9B2D6D2D0E94432201
:1005C000A8952AE0D21689F00E9471186E197F0949
:1005D000800B910B605D77408040904030F4DFCF1E
:1005E0008C2D9B2D0E94831F0BC00E9471186E19C9
:1005F0007F09800B910B615D77408040904080F7D0
:100600008C2D9B2D1F910F91FF90EF90DF90CF903D
:10061000BF900895EF92FF920F931F93DF93CF93B4
:10062000CDB7DEB727970FB6F894DEBF0FBECDBFAC
:100630007C010EED12E0C8016AE071E00E941B1E11
:10064000C801B7010E942B1FC8016EE071E00E9433
:100650001B1E8E010F5F1F4FC8010E94BC029FEA44
:10066000E92E94E0F92EC701B8010E942B1FC701A3
:100670000E94C51CC8010E94412327960FB6F8941A
:10068000DEBF0FBECDBFCF91DF911F910F91FF90C5
:10069000EF900895CF93DF93EC01009739F08881B4
:1006A00099810E949117CE010E949117DF91CF91FD
:1006B00008956F927F928F929F92AF92BF92CF9246
:1006C000DF92EF92FF920F931F93CF93DF935C0122
:1006D0004B013A01FA01118210820E94FA00EC01EA
:1006E000009719F4EE24FF2437C0CC24DD2409C080
:1006F000C114D10409F48C010894C11CD11C80E000
:1007000090E0B4010E941801009791F7C601880F8C
:10071000991F01960E94F4167C01009721F4CE01E6
:100720000E94911719C00C1B1D0B0A0D1B1DCE0139
:10073000B8010E944101CE01E70104C08993999359
:1007400080E090E0B4010E9418010097B9F7198287
:100750001882F301D182C082C701DF91CF911F912E
:100760000F91FF90EF90DF90CF90BF90AF909F9050
:100770008F907F906F9008952F923F924F925F924B
:100780006F927F928F929F92AF92BF92CF92DF92A1
:10079000EF92FF920F931F93DF93CF93CDB7DEB706
:1007A0002D970FB6F894DEBF0FBECDBF9E838D830D
:1007B0003A014B0138872F831A870987EB86CB01D3
:1007C000BA0120E030E040E050E00E948D24882310
:1007D0002CF420E030E040E05FEB04C020E030E0AB
:1007E00040E05FE300E010E00CC0CA01B90120E086
:1007F00030E040E251E40E9491249B01AC010F5F84
:100800001F4F8F819885081719077CF3C401B30126
:100810000E9429245B016C01C401B30120E030E097
:1008200040E050E00E948D24882324F4D7FAD0942D
:10083000D7F8D0940F2EFDEC2F2EFCEC3F2EFCECC5
:100840004F2EFDE35F2EF02D1C821B8207C0AB8173
:10085000BC811196BC83AB8317012801C201B10191
:1008600020E030E040E251E40E94E0257B018C0171
:10087000A60195010E948D2418164CF7EB81FC818E
:10088000EF2B19F402E010E004C00B811C810F5F14
:100890001F4FC401B30120E030E040E050E00E946F
:1008A0008D24882314F40F5F1F4F2F8138852F5F0D
:1008B0003F4FC901800F911F2150304038872F834F
:1008C00009851A850F5F1F4F801791072CF01D8631
:1008D0001C861A8219821EC0A801481B590B5A8314
:1008E000498314161506A4F45B85552389F080E02E
:1008F00090E020E2ED81FE81E80FF91F2083019650
:10090000A981BA818A179B07ACF3BD87AC8702C067
:100910001D861C86C401B30120E030E040E050E0B9
:100920000E948D24882364F4ED81FE812C853D8511
:10093000E20FF31F8DE280832F5F3F4F3D872C87AF
:100940004B815C81452B69F4ED81FE818C859D8511
:10095000E80FF91F80E38083AC85BD851196BD87C4
:10096000AC876D807E80EC85FD856E0E7F1E8824B1
:1009700099243AC0C601B501A20191010E949124B7
:100980000E94F924DC01CB017C012C853D852F5F81
:100990003F4F3D872C87B3014AE050E00E94DB01C6
:1009A0000027F7FC0095102FC801B7010E942C25E5
:1009B000A20191010E94E0259B01AC01C601B50195
:1009C0000E9428245B016C01C201B10120E030E0EB
:1009D00040E251E40E9491241B012C010894811CE7
:1009E000911C0894611C711C4B815C8184169506D6
:1009F0000CF28F819885181619065CF4ED81FE8142
:100A0000AC85BD85EA0FFB1F8EE280831196BD8702
:100A1000AC876D807E80EC85FD856E0E7F1E882400
:100A2000992430C0C601B50120E030E040E251E435
:100A30000E94E0255B016C010E94F924DC01CB01DE
:100A40007C012C853D852F5F3F4F3D872C87B3016F
:100A50004AE050E00E94DB010027F7FC0095102FD0
:100A6000C801B7010E942C259B01AC01C601B5014C
:100A70000E9428245B016C010894811C911C08943D
:100A8000611C711C4F815885841695065CF2898122
:100A90009A8118161906CCF49B859923B1F4ED813F
:100AA000FE81AC85BD85EA0FFB1F80E090E020E26F
:100AB0002193019649815A8184179507CCF38C853F
:100AC0009D85840F951F9D878C87AC85BD85ED81A5
:100AD000FE81AE0FBF1F1C928D819E812D960FB699
:100AE000F894DEBF0FBECDBFCF91DF911F910F9164
:100AF000FF90EF90DF90CF90BF90AF909F908F903E
:100B00007F906F905F904F903F902F90089570E08E
:100B100034E0660F771F3A95E1F76E5F7F4F40E153
:100B200050E024E132E00E94A3010895AF92BF9209
:100B3000CF92DF92EF92FF920F931F93DF93CF93A9
:100B4000CDB7DEB72A970FB6F894DEBF0FBECDBF84
:100B5000F82ED92E69E071E00E949922CC24C3942A
:100B60005E010894A11CB11C6091BE026C198AE060
:100B700093E00E94870540910E0350910F0360910E
:100B8000100370911103C50122E030E000E010E095
:100B9000EE240E94BC038F2D9D2DB5010E9456228C
:100BA0008F2D9D2D62E171E00E94562240910A0333
:100BB00050910B0360910C0370910D03C50122E06D
:100BC00030E00E94BC038F2D9D2DB5010E9456225E
:100BD0008F2D9D2D62E171E00E94562240911203FB
:100BE000509113036091140370911503C50122E025
:100BF00030E00E94BC038F2D9D2DB5010E9456222E
:100C00008F2D9D2D62E171E00E945622C39489E0F0
:100C1000C81609F0A9CF8FEA94E06F2D7D2D0E94B0
:100C20005E1F8F2D9D2D2A960FB6F894DEBF0FBE46
:100C3000CDBFCF91DF911F910F91FF90EF90DF908B
:100C4000CF90BF90AF90089580E090E06EEB72E09F
:100C500041E050E02CE132E00E94BF010895AF92E4
:100C6000BF92CF92DF92EF92FF920F931F93DF9389
:100C7000CF93CDB7DEB760970FB6F894DEBF0FBE47
:100C8000CDBFA982BA82CB82DC82ED82FE820F8345
:100C9000188729873A874B875C876D877E878F8780
:100CA000988B8091BE026EE30E946626892F90E0A9
:100CB00044E0880F991F4A95E1F70296BE016F5FE5
:100CC0007F4F40E150E02CE132E00E94BF01809173
:100CD000BE028F5F8093BE020E94240660960FB60C
:100CE000F894DEBF0FBECDBFCF91DF911F910F9162
:100CF000FF90EF90DF90CF90BF90AF900895AF92AC
:100D0000BF92CF92DF92EF92FF920F931F93609169
:100D1000FA027091FB028091FC029091FD0220E0AA
:100D200030EC48E256E40E9491246093FA027093FA
:100D3000FB028093FC029093FD026091FE02709191
:100D4000FF02809100039091010320E030EC48E223
:100D500056E40E9491246093FE027093FF028093F8
:100D6000000390930103609102037091030380914B
:100D700004039091050320E030EC48E256E40E9421
:100D80009124609302037093030380930403909370
:100D90000503A090FA02B090FB02C090FC02D09034
:100DA000FD02E090FE02F090FF020091000310911E
:100DB00001032091020330910303409104035091F9
:100DC00005036091060370910703809108039091D9
:100DD00009030E942F0680E090E0A0E0B0E080933D
:100DE000020390930303A0930403B093050380933D
:100DF000FA029093FB02A093FC02B093FD02809351
:100E0000FE029093FF02A0930003B093010380932E
:100E1000060390930703A0930803B09309031F915F
:100E20000F91FF90EF90DF90CF90BF90AF9008951B
:100E3000EF92FF920F931F937B018C010FC060EA2A
:100E40007FE080E090E00E947F18A89580E690EF18
:100E5000AFEFBFEFE80EF91E0A1F1B1F91EAE9165C
:100E60009FE0F90690E0090790E0190744F7C801F0
:100E7000B7010E947F18A8951F910F91FF90EF90E6
:100E80000895CF92DF92EF92FF920F931F93DF931B
:100E9000CF93CDB7DEB72E970FB6F894DEBF0FBE57
:100EA000CDBF7C016B010EED12E0C80164E271E080
:100EB0000E941B1E64EF71E080E090E00E94180722
:100EC000C8016FE271E00E941B1EC801B7010E94B9
:100ED0002B1FC80169E371E00E94181F64EF71E0E5
:100EE00080E090E00E941807C801B6010E945E1FD2
:100EF00064EF71E080E090E00E941807C8016AE1A9
:100F00000E94E51C64EF71E080E090E00E94180709
:100F1000C8010E94C51C60EA7FE080E090E00E946A
:100F20001807C8016BE371E00E941B1E68EE73E0B6
:100F300080E090E00E9418078E010F5F1F4FC801EC
:100F40000E94BC02C8010E9441238E01085F1F4F0E
:100F5000C8010E94BC02C8010E9441232E960FB610
:100F6000F894DEBF0FBECDBFCF91DF911F910F91DF
:100F7000FF90EF90DF90CF9008954F925F926F9225
:100F80007F928F929F92BF92CF92DF92EF92FF92C9
:100F90000F931F93DF93CF93CDB7DEB764970FB650
:100FA000F894DEBF0FBECDBFF82EB92E0E944F02BF
:100FB00068E873E180E090E00E94180781E00E94F9
:100FC00013198C0182E00E9413194C010E945802EF
:100FD00068E873E180E090E00E94180780E00E94DA
:100FE0001319AA2797FDA095BA2FBC01CD010E9425
:100FF0002C252DEC3CEC44E850E40E94E02520E058
:1010000030EC4FE754E40E94912420E030E048ECBB
:1010100052E40E94912426EA3BE944E45BE30E9407
:1010200091246093CC027093CD028093CE02909372
:10103000CF0281E00E9413193C0182E00E94131943
:101040002C018F2D9B2D69E071E00E9499228091E7
:10105000C802882329F08F2D9B2D61E571E004C023
:101060008F2D9B2D6BE571E00E945622B801660F13
:10107000771F660F771F600F711F882777FD809598
:10108000982F0E942C252DEC3CEC44E850E40E9463
:10109000E02520E030EC4FE754E40E949124AB01BE
:1010A000BC016E010894C11CD11CC60122E030E0D5
:1010B00000E010E0EE240E94BC038F2D9B2DB601B2
:1010C0000E9456228F2D9B2D62E171E00E945622D4
:1010D000B401660F771F660F771F680D791D88278B
:1010E00077FD8095982F0E942C252DEC3CEC44E850
:1010F00050E40E94E02520E030EC4FE754E40E94E9
:101100009124AB01BC01C60122E030E00E94BC0387
:101110008F2D9B2DB6010E9456228F2D9B2D62E1B3
:1011200071E00E9456224091CC025091CD02609114
:10113000CE027091CF02C60122E030E00E94BC03D3
:101140008F2D9B2DB6010E9456228F2D9B2D62E183
:1011500071E00E945622B301660F771F660F771F5A
:10116000660D771D882777FD8095982F0E942C2586
:101170002DEC3CEC44E850E40E94E02520E030EC0B
:101180004FE754E40E949124AB01BC01C60122E068
:1011900030E00E94BC038F2D9B2DB6010E94562289
:1011A0008F2D9B2D62E171E00E945622B201660FE5
:1011B000771F660F771F640D751D882777FD809553
:1011C000982F0E942C252DEC3CEC44E850E40E9422
:1011D000E02520E030EC4FE754E40E949124AB017D
:1011E000BC01C60122E030E00E94BC038F2D9B2D84
:1011F000B6010E9456228F2D9B2D62E171E00E9464
:1012000056228FEA94E06F2D7B2D0E945E1F8F2D5A
:101210009B2D64960FB6F894DEBF0FBECDBFCF9165
:10122000DF911F910F91FF90EF90DF90CF90BF90D3
:101230009F908F907F906F905F904F9008952F9226
:101240003F924F925F926F927F928F929F92BF9246
:10125000CF92DF92EF92FF920F931F93DF93CF9382
:10126000CDB7DEB72E970FB6F894DEBF0FBECDBF59
:10127000F82EB92E69E071E00E9499220E944F0277
:1012800081E00E9413199C01220F331F220F331F8C
:10129000280F391F442737FD4095542FCA01B90143
:1012A0000E942C252DEC3CEC44E850E40E94E02503
:1012B00020E030EC4FE754E40E9491241B012C0104
:1012C00082E00E9413199C01220F331F220F331F4B
:1012D000280F391F442737FD4095542FCA01B90103
:1012E0000E942C252DEC3CEC44E850E40E94E025C3
:1012F00020E030EC4FE754E40E9491243B014C0184
:101300000E94580268EE73E080E090E00E941807A7
:1013100080E00E941319AA2797FDA095BA2FBC015F
:10132000CD010E942C252DEC3CEC44E850E40E94B9
:10133000E02520E030EC4FE754E40E94912420E0C7
:1013400030E048EC52E40E94912426EA3BE944E470
:101350005BE30E9491246093CC027093CD02809352
:10136000CE029093CF0281E00E9413199E878D8751
:1013700082E00E9413199C878B87C401B30120E08F
:1013800030E040EA50E40E94DC251816FCF4C2016B
:10139000B10120E030E040EA50E40E94DC2518165C
:1013A000ACF46091CC027091CD028091CE0290910C
:1013B000CF0220E030E040E050E00E94DC2518162B
:1013C0002CF48F2D9B2D69E671E004C08F2D9B2D91
:1013D00065E771E00E94B3228F2D9B2D62E171E0E1
:1013E0000E9456226E010894C11CD11CC601B20194
:1013F000A10122E030E000E010E0EE240E94BC03F6
:101400008F2D9B2DB6010E9456228F2D9B2D62E1C0
:1014100071E00E945622C601B401A30122E030E02F
:101420000E94BC038F2D9B2DB6010E9456228F2D4A
:101430009B2D62E171E00E9456224091CC025091B6
:10144000CD026091CE027091CF02C60122E030E061
:101450000E94BC038F2D9B2DB6010E9456228F2D1A
:101460009B2D62E171E00E9456226D857E85660F9C
:10147000771F660F771F8D859E85680F791F8827D8
:1014800077FD8095982F0E942C252DEC3CEC44E8AC
:1014900050E40E94E02520E030EC4FE754E40E9445
:1014A0009124AB01BC01C60122E030E00E94BC03E4
:1014B0008F2D9B2DB6010E9456228F2D9B2D62E110
:1014C00071E00E9456226B857C85660F771F660F40
:1014D000771F8B859C85680F791F882777FD8095FE
:1014E000982F0E942C252DEC3CEC44E850E40E94FF
:1014F000E02520E030EC4FE754E40E949124AB015A
:10150000BC01C60122E030E00E94BC038F2D9B2D60
:10151000B6010E9456228F2D9B2D2E960FB6F89461
:10152000DEBF0FBECDBFCF91DF911F910F91FF9016
:10153000EF90DF90CF90BF909F908F907F906F90B3
:101540005F904F903F902F9008954F925F926F92CF
:101550007F928F929F92AF92BF92CF92DF92EF9243
:10156000FF920F931F93DF93CF93CDB7DEB7C35B8B
:10157000D1400FB6F894DEBF0FBECDBF8C018EED0B
:1015800092E064E271E00E941B1E64EF71E080E073
:1015900090E00E9418070E94AF028EED92E061E891
:1015A00071E00E941B1E8EED92E0B8014AE050E00F
:1015B0000E94E91D8EED92E06AE871E00E941B1E18
:1015C000A3E06A2E712C6C0E7D1EC30169E071E0F0
:1015D0000E949922CE010A9669E071E00E94992248
:1015E000CE01419669E071E00E949922F8E18F2EC8
:1015F000912C8C0E9D1EC40169E071E00E9499221D
:10160000E6E0AE2EE1E0BE2EAC0EBD1EC50169E0E7
:1016100071E00E94992277E0472E512C4A0C5B1C06
:10162000C20169E071E00E9499228E01015E1F4FA4
:10163000C8010E94BC02C8010E9441238E010A5DBC
:101640001F4FC8010E94BC02C8010E9441238E01A5
:10165000035D1F4FC8010E94BC02C501B8010E9472
:101660001F23C8010E944123C8010E94BC02C2017D
:10167000B8010E941F23C8010E9441238E010C5C07
:101680001F4FC80162E171E00E949922C501B801B3
:101690000E9486207C01C8010E9441238E01055CC6
:1016A0001F4FC80162E171E00E9499220894E11C79
:1016B000F11CC501B801A7010E9468206C01C80196
:1016C0000E9441238E010E5B1F4FC801B501A70187
:1016D00096010E94CC22C301B8010E941F23C801B9
:1016E0000E94412369E4E62EF12CEC0EFD1EC70199
:1016F00069E371E00E949922F501448155814250CD
:101700005040C501B7010E941A20AC018E01005B58
:101710001F4FC801B5010E941323C401B8010E94E4
:101720001F23C8010E944123C7010E94412357E59E
:10173000E52EF12CEC0EFD1EC70169E371E00E945D
:1017400099228E01025A1F4FC80169E071E00E9480
:101750009922C301B701A8010E94F520C8010E9487
:101760004123C7010E94412345E6E42EF12CEC0EF3
:10177000FD1EC70169E371E00E9499228E010459A0
:101780001F4FC80169E071E00E949922C401B701AE
:10179000A8010E94F520C8010E944123C7010E94B0
:1017A00041238FEA94E06DE871E00E941B1E8E01D8
:1017B0000D581F4FC801B5010E9436238FEA94E0EF
:1017C000B8010E942B1F8FEA94E00E94C51CC8013B
:1017D0000E9441238FEA94E060EA71E00E941B1EA0
:1017E0008E0106581F4FC801B2010E9436238FEAAE
:1017F00094E0B8010E942B1F8FEA94E00E94C51C60
:10180000C8010E9441238FEA94E062EB71E00E94DC
:101810001B1E8E010F571F4FC801B4010E943623B3
:101820008FEA94E0B8010E942B1F8FEA94E00E9497
:10183000C51CC8010E9441238FEA94E06FEB71E060
:101840000E941B1E8E0108571F4FC801B3010E9442
:1018500036238FEA94E0B8010E942B1F8FEA94E0B0
:101860000E94C51CC8010E944123C2010E94831F1F
:101870001A8219828E010C5E1E4FC201B80140EA25
:1018800050E020E030E00E948B20C8016DEC71E058
:10189000AE014F5F5F4F0E9459033C018FEA94E015
:1018A0006FEC71E00E941B1E69817A818FEA94E0DF
:1018B0004AE050E00E948C1D89819A81029708F4C9
:1018C00097C0F30160817181C8010E9441018FEAD4
:1018D00094E0B8010E94181FC80168ED71E00E94F1
:1018E0003801009709F08CC13FE8832E912C8C0EB3
:1018F0009D1EC40169E071E00E94992222E0B22E8F
:10190000C801D02EC92E94EB492E91E0592E4C0ED1
:101910005D1E28C0F801EE0FFF1FE60DF71D608168
:1019200071818D2D9C2D0E9441018D2D9C2D7C015E
:1019300009C0C4010E9443220894E11CF11CE41474
:10194000F50421F0F70160816A3099F789819A8165
:1019500001970817190728F4C4016DEC71E00E9483
:101960005622B3940B2D10E089819A81081719072C
:1019700088F2F301628173818D2D9C2D0E944101BB
:101980008FEA94E06D2D7C2D0E94181F8E010A565F
:101990001F4FC8016D2D7C2D0E9499228FEA94E083
:1019A000B8010E945E1FC8010E9441231DE9E12E7B
:1019B000F12CEC0EFD1EC7016D2D7C2D0E9499228D
:1019C0008E010C551F4FBFE8CB2ED12CCC0EDD1E47
:1019D000C801B6010E943623C701B8010E94410721
:1019E000C8010E944123C7010E944123C60106C1CC
:1019F0008E0105551F4FC8016DED71E00E949922BF
:101A0000C201B8010E94DE1FF82EC8010E944123C6
:101A1000FF2019F081E08093C8028E010E541F4F01
:101A2000C80165EE71E00E949922CE01835F9E4F4E
:101A3000B8010E94DE1FF82EC8010E944123FF203A
:101A400011F01092C8028E0107541F4FC80160EFB9
:101A500071E00E949922CE01835F9E4FB8010E94DF
:101A6000DE1FF82EC8010E944123FF20D9F0A7EC09
:101A7000EA2EF12CEC0EFD1EC701BE016D5F7F4FFB
:101A80000E9436238E0100541F4FC8010E94960504
:101A9000C701B8010E944107C8010E944123C70144
:101AA0000E9441238E0102531F4FC80167EF71E06E
:101AB0000E949922CE01835F9E4FB8010E94DE1FD3
:101AC000F82EC8010E944123FF20E1F1F894109202
:101AD000800010928100109285001092840080EDA9
:101AE00097E09093890080938800809181008860BE
:101AF0008093810080918100856080938100809136
:101B00006F00826080936F007894FCEDEF2EF12CD3
:101B1000EC0EFD1EC701BE016D5F7F4F0E94362394
:101B20008E010B521F4FC8010E941F09C701B80147
:101B30000E944107C8010E944123C7010E9441231E
:101B40000E948E028E010D511F4FC8016CEF71E093
:101B50000E949922CE01835F9E4FB8010E94DE1F32
:101B6000F82EC8010E944123FF20D9F0E1EFEE2EAC
:101B7000F12CEC0EFD1EC701BE016D5F7F4F0E9470
:101B800036238E0106511F4FC8010E94BD07C701B1
:101B9000B8010E944107C8010E944123C7010E9469
:101BA00041238E0108501F4FC8016AE072E00E9475
:101BB000992276E0A72E71E0B72EAC0EBD1E67E02D
:101BC000C62ED12CCA0CDB1CC601B8010E9486208F
:101BD0007C01C8010E944123F7FC12C08E01015014
:101BE0001F4FF50123853485C801B60144E050E05C
:101BF0000E94CC22C8010E940A03C8010E9441230E
:101C0000C3010E944A038E010A5F1E4FC801079656
:101C10000E944123C8010E944123CE0148960E94A0
:101C20004123CE0141960E944123CE010A960E9493
:101C30004123CE0103960E944123CD54DE4F0FB6BF
:101C4000F894DEBF0FBECDBFCF91DF911F910F91F2
:101C5000FF90EF90DF90CF90BF90AF909F908F90CC
:101C60007F906F905F904F900895CF92DF92EF92A8
:101C7000FF920F931F93DF93CF93CDB7DEB7A69755
:101C80000FB6F894DEBF0FBECDBF8EED92E00E947E
:101C90007A15181619060CF06AC06E010894C11C5A
:101CA000D11CC6010E94BC028FEA94E0B6010E94DA
:101CB0005E1F8E01085F1F4FC8016FE072E00E9437
:101CC0009922C601B8010E9486207C01C8010E94A9
:101CD0004123F7FC48C01FE0E12EF12CEC0EFD1E65
:101CE000C70162E171E00E949922C601B7010E941A
:101CF0008620082FC7010E944123B6E1EB2EF12C6C
:101D0000EC0EFD1E10E00F5F1F4F2D813E81C701BD
:101D1000B601A8010E94CC228E01035E1F4FC701AD
:101D2000B8014AE050E020E030E00E948B208FEACA
:101D300094E0B7010E945E1FC8010E94DC00BC0154
:101D40008FEA94E04AE050E00E94FC1DC8010E9426
:101D5000DC000E94A50AC8010E94DC000E949802D3
:101D6000C7010E944123CE0101960E944123A696FD
:101D70000FB6F894DEBF0FBECDBFCF91DF911F919C
:101D80000F91FF90EF90DF90CF9008951F9310E098
:101D900015C084E061E00E94D41960ED77E080E036
:101DA00090E00E94180784E060E00E94D41960ED82
:101DB00077E080E090E00E94180711E086E00E9442
:101DC000281A892B31F3112341F068E57BE180E08B
:101DD00090E00E9418070E94AF021F910895EF92B1
:101DE000FF920F931F93DF93CF93CDB7DEB7A397E7
:101DF0000FB6F894DEBF0FBECDBF8EED92E064E16A
:101E000072E00E94181F8E010F5F1F4FC8010E94D1
:101E1000BC02C8010E9441238E01085F1F4FC80108
:101E20000E94BC02C8010E9441230FE0E02EF12C69
:101E3000EC0EFD1EC7010E94BC028FEA94E0B701C0
:101E40000E945E1F8E010A5E1F4FC8016DE172E0A5
:101E50000E949922C701B8010E94862097FD02C006
:101E600011E01CC08E01035E1F4FC80163E272E0E7
:101E70000E949922C701B8010E94862097FF09C0DD
:101E8000C70169E071E00E94B820882311F410E0D6
:101E900001C011E0CE014D960E944123CE0146962D
:101EA0000E944123112329F00E94C60E0FEF1FEF5D
:101EB00008C00E948E0289E061E00E94D41900E00F
:101EC00010E0CE010F960E944123C801A3960FB6E1
:101ED000F894DEBF0FBECDBFCF91DF911F910F9160
:101EE000FF90EF9008956F927F928F929F92AF92A2
:101EF000BF92CF92DF92EF92FF920F931F93CF93F7
:101F0000DF9380E090E0A0E0B0E08093CC0290937B
:101F1000CD02A093CE02B093CF028093D0029093D3
:101F2000D102A093D202B093D3028093D4029093B3
:101F3000D502A093D602B093D702C0E0D0E0E090E3
:101F4000CC02F090CD020091CE021091CF0280E041
:101F50000E941319AA2797FDA095BA2FBC01CD01A5
:101F60000E942C252DEC3CEC44E850E40E94E02536
:101F700020E030EC4FE754E40E94912420E030E070
:101F800048E452E40E94912426EA3BE944E45BE3FE
:101F90000E9491249B01AC01C801B7010E94292431
:101FA0006093CC027093CD028093CE029093CF02C7
:101FB000E090D002F090D1020091D2021091D302B1
:101FC00081E00E9413199C01220F331F220F331F3F
:101FD000280F391F442737FD4095542FCA01B901F6
:101FE0000E942C252DEC3CEC44E850E40E94E025B6
:101FF00020E030EC4FE754E40E9491249B01AC01B7
:10200000C801B7010E9429246093D0027093D102C5
:102010008093D2029093D302E090D402F090D50244
:102020000091D6021091D70282E00E9413199C0100
:10203000220F331F220F331F280F391F442737FD6C
:102040004095542FCA01B9010E942C252DEC3CEC7F
:1020500044E850E40E94E02520E030EC4FE754E4EF
:102060000E9491249B01AC01C801B7010E94292460
:102070003B014C016093D4027093D5028093D60249
:102080009093D7022196C436D10509F058CF6091BC
:10209000CC027091CD028091CE029091CF0220E0CF
:1020A00030E048EC52E40E9491247B018C01609363
:1020B000CC027093CD028093CE029093CF026091B8
:1020C000D0027091D1028091D2029091D30220E08F
:1020D00030E048EC52E40E9491245B016C01609373
:1020E000D0027093D1028093D2029093D302C401A4
:1020F000B30120E030E048EC52E40E9491243B011F
:102100004C016093D4027093D5028093D6029093D1
:10211000D702E092BF02F092C0020093C102109376
:10212000C202C801B701A60195010E94E02520E086
:1021300030E041E655E40E9491249B01AC0160919E
:1021400002037091030380910403909105030E94A0
:1021500029246093020370930303809304039093F4
:1021600005036091FE027091FF028091000390913F
:102170000103A60195010E9429246093FE02709339
:10218000FF0280930003909301036091FA02709123
:10219000FB028091FC029091FD02A40193010E9438
:1021A00029246093FA027093FB028093FC029093BF
:1021B000FD026091060370910703809108039091DE
:1021C000090320E030E040E85FE30E9429246093A7
:1021D000060370930703809308039093090380918B
:1021E000DC029091DD0201969093DD028093DC0287
:1021F00081539A4234F00E947F061092DD021092C1
:10220000DC028091DC029091DD026FE070E00E94C0
:102210007226892B41F48EED92E00E947A15892B6B
:1022200011F40E94EF0EDF91CF911F910F91FF905B
:10223000EF90DF90CF90BF90AF909F908F907F9066
:102240006F9008950F931F930FEA14E0C80140E8C0
:1022500055E260E070E00E94051B8EED92E040E8E0
:1022600055E260E070E00E94601485E061E00E9449
:10227000951988E061E00E94951989E061E00E946B
:10228000951988E061E00E94951984E061E00E9460
:10229000951986E060E00E949519C80167E272E036
:1022A0000E94181FF89410928000E1E8F0E010827C
:1022B000109285001092840080ED97E09093890041
:1022C000809388008081886080838081856080839E
:1022D000EFE6F0E080818260808378940E94C60EF1
:1022E0000E94EF0E80E090E0A0E0B0E08093D80282
:1022F0009093D902A093DA02B093DB021092DD0230
:102300001092DC0229E288E190E00FB6F894A895DB
:10231000809360000FBE209360001F910F9108957D
:102320008F929F92AF92BF92CF92DF92EF92FF92E5
:102330000F931F93CF93DF9388E061E00E94D4193D
:102340004091D4025091D5026091D6027091D7028B
:102350008FEA94E022E030E00E94051F4091CC0219
:102360005091CD026091CE027091CF028FEA94E03D
:1023700022E030E00E94051F8091C302882309F00B
:1023800019C1E090D402F090D5020091D6021091CC
:10239000D70266E676E686E691E4A80197010E94F8
:1023A000282426E636E646E651E40E9491242DECE8
:1023B0003CEC4CE45DE30E94DC2518162CF480E034
:1023C00090E0A0E8BFE304C08DEC9CECACE4BEE37D
:1023D0008093C4029093C502A093C602B093C70233
:1023E000C801B7012CEC3CEC44E651E40E948D247A
:1023F00088239CF4609151027091520280915302A3
:10240000909154022091C4023091C5024091C602BD
:102410005091C7020E9429241CC0C801B70120E0C6
:1024200030E048E651E40E94DC251816D4F46091AF
:102430005102709152028091530290915402209166
:10244000C4023091C5024091C6025091C7020E9459
:102450002824609351027093520280935302909308
:1024600054021091C9021F5F1093C9021F3108F472
:1024700058C0609151027091520280915302909124
:10248000540220E030E040EF51E40E948D24882384
:102490003CF5812F90E06CE271E00E947226892B5E
:1024A000F9F40E944F0260E177E280E090E00E9440
:1024B00018070E94730F6091D4027091D502809129
:1024C000D6029091D70220E030E040E551E40E942E
:1024D0008D2488232CF41092CA0281E08093C302D9
:1024E0006091510270915202809153029091540276
:1024F00020E030E048EC52E40E94DC2518168CF411
:1025000080E090E0AAEAB2E48093510290935202F4
:10251000A0935302B09354021092CA0281E08093B8
:10252000C3026091510270915202809153029091C6
:10253000540220E030E04FE753E40E94DC251816F7
:1025400064F480E090E0AFE7B3E4809351029093AD
:102550005202A0935302B0935402609151027091C1
:102560005202809153029091540220E030E040E00A
:1025700050E00E948D24882364F480E090E0A0E085
:10258000B0E08093510290935202A0935302B09313
:1025900054026091510270915202809153029091C5
:1025A00054020E94F9249B01AC0185E0B9010E940C
:1025B00035196CC0813009F069C085E061E00E9486
:1025C000D4198091CA028F5F8093CA02CCE5D2E011
:1025D00060E8862E62E0962EE090CC02F090CD026C
:1025E0000091CE021091CF02C801B7012881398134
:1025F0004A815B810E948D2488230CF03DC0AC8011
:10260000BD80CE80DF80C801B701A60195010E9480
:10261000DC2518168CF58FEA94E0B601A50122E0BE
:1026200030E00E94021F8FEA94E06DEC71E00E949E
:102630001B1EF401E080F180028113818FEA94E097
:10264000B801A70122E030E00E94051F8091CA0274
:102650008B3090F06091D4027091D5028091D602B7
:102660009091D702A80197010E94DC25181624F446
:102670001092C3021092C902249684E090E0880E62
:10268000991E92E0C837D90709F0A6CF6091D00211
:102690007091D1028091D2029091D3022091D40204
:1026A0003091D5024091D6025091D7020E948D24DC
:1026B000882314F40E944F02DF91CF911F910F9154
:1026C000FF90EF90DF90CF90BF90AF909F908F9052
:1026D00008950E94350E68EE73E080E090E00E945D
:1026E00018070E94730F8091C802882319F00E9476
:1026F000901108950E944F0208950F931F93CF9356
:10270000DF93FC01738D76957170A685B7859585ED
:10271000772329F08C91892309F44FC004C08C9150
:10272000892309F04AC08389948920E001972FEF1B
:102730008F3F9207D9F7C589D689A685B7851585B4
:1027400060E031E040E050E000E0CE01202F019752
:102750002FEF8F3F9207D9F78C91812311F0632BD4
:1027600003C0832F80956823330F4F5F5F4F48303E
:10277000510559F78789908D20E001972FEF8F3F02
:102780009207D9F77111609580911C0420911D0466
:102790008F5F90E030E08217930761F0E0911C04B6
:1027A000F0E0E45EFC4F608380911C048F5F8093B7
:1027B0001C0403C0838D8160838FDF91CF911F91B3
:1027C0000F9108951F920F920FB60F9211242F931D
:1027D0003F934F935F936F937F938F939F93AF93A9
:1027E000BF93EF93FF9380911A0390911B0300977F
:1027F00011F00E947D13FF91EF91BF91AF919F91D6
:102800008F917F916F915F914F913F912F910F9099
:102810000FBE0F901F9018951F920F920FB60F9238
:1028200011242F933F934F935F936F937F938F93D5
:102830009F93AF93BF93EF93FF9380911A0390916F
:102840001B03009711F00E947D13FF91EF91BF9140
:10285000AF919F918F917F916F915F914F913F9138
:102860002F910F900FBE0F901F9018951F920F92EF
:102870000FB60F9211242F933F934F935F936F9353
:102880007F938F939F93AF93BF93EF93FF93809129
:102890001A0390911B03009711F00E947D13FF9182
:1028A000EF91BF91AF919F918F917F916F915F91C8
:1028B0004F913F912F910F900FBE0F901F90189541
:1028C000CF92DF92EF92FF920F931F93CF93DF93FC
:1028D000EC017A018B011A8E198E188E1F8A1E8ABE
:1028E0001D8A1C8A1B8A20E030E06901CC0CDD1CAB
:1028F000C20ED31EB601660F771F660F771FAB019E
:1029000048595F4FFA0185919591A591B4918E1523
:102910009F05A007B107E9F4FB01E459FF4F85913A
:1029200094919C8B8B8BFB01E259FF4F8591949185
:102930009E8B8D8BFB01E059FF4F85919491988F71
:102940008F8BFB01EE58FF4F859194919A8F898F61
:1029500006C02F5F3F4F2D30310509F0C6CF8F895C
:10296000988D892B09F449C04C85463108F03DC04B
:1029700090916800483010F484E005C04E3010F0AB
:1029800082E001C081E0892B80936800483028F400
:10299000EDE6F0E0ADE6B0E00BC04E3028F0ECE63E
:1029A000F0E0ACE6B0E004C0EBE6F0E0ABE6B0E0AF
:1029B0005081483040F481E090E002C0880F991FB8
:1029C0004A95E2F710C0242F30E04E3018F428501A
:1029D000304002C02E50304081E090E002C0880FAD
:1029E000991F2A95E2F7852B8C93898D9A8D20E08B
:1029F00001972FEF8F3F9207D9F780911A0390919B
:102A00001B038C179D0781F08B8D8E7F8B8F9FB75B
:102A1000F89410921C0480911C0480931D04D093A0
:102A20001B03C0931A039FBFDF91CF911F910F919A
:102A3000FF90EF90DF90CF900895FC0144854631E0
:102A400080F5483028F4EDE6F0E0ADE6B0E00BC0EC
:102A50004E3028F4EBE6F0E0ABE6B0E004C0ECE684
:102A6000F0E0ACE6B0E05081483040F481E090E026
:102A700002C0880F991F4A95E2F710C0242F30E05A
:102A80004E3018F42850304002C02E50304081E0C3
:102A900090E002C0880F991F2A95E2F78095852360
:102AA0008C930895FC0180EA92E091838083CF01AA
:102AB0000E941D15089520911A0330911B032817B9
:102AC000390731F490911D0480911C04981719F472
:102AD0002FEF3FEF0DC0E0911D04F0E0E45EFC4FEE
:102AE000908180911D048F5F80931D04292F30E019
:102AF000C901089520911A0330911B032817390743
:102B000019F020E030E00BC080911C0490911D046E
:102B1000282F30E020503F4F291B31093070C90168
:102B200008950F931F93DC0159968D919C915A97AC
:102B3000892B49F481E090E013969C938E93129731
:102B400020E030E097C00FB7F8945B968C915B97CC
:102B50005196ED91FC91529750962C91509781FF90
:102B60008DC08081822B808359968D919C915A973C
:102B7000059620E001972FEF8F3F9207D9F75B96DC
:102B80008C915B9781FF35C031E040E050E070E010
:102B900010E0832F90E0862397235196ED91FC91CE
:102BA000529750962C915097892B29F0808120952F
:102BB0002823208303C08081822B808359968D91A6
:102BC0009C915A97212F01972FEF8F3F9207D9F7AA
:102BD000330F4F5F5F4F48305105D9F65196ED9155
:102BE000FC915297908150968C91509780958923B3
:102BF00033C031E040E050E070E010E0832F90E01F
:102C0000862397235196ED91FC91529750962C91E3
:102C10005097892B21F08081822B808304C0808192
:102C200020952823208359968D919C915A97212F86
:102C300001972FEF8F3F9207D9F7330F4F5F5F4F09
:102C400048305105D9F65196ED91FC91529780810B
:102C500050969C915097892B80830FBF59968D91E8
:102C60009C915A9720E001972FEF8F3F9207D9F759
:102C700021E030E0C9011F910F91089580812095D6
:102C80002823208371CF20911A0330911B0328172A
:102C9000390749F49FB7F89410921C0480911C04E2
:102CA00080931D049FBF089520911A0330911B0348
:102CB0002817390731F490911D0480911C0498174E
:102CC00019F42FEF3FEF0AC0E0911D04F0E0E45E3D
:102CD000FC4F8081282F332727FD3095C9010895A7
:102CE0001F93CF93DF93EC01162F862F60E00E9495
:102CF00095198B8D81FD04C0812F61E00E94D4194C
:102D00001C87212F30E0C9018A5C9E4FFC01849111
:102D10008D872E5D3E4FF9016491E62FF0E0EE0FB6
:102D2000FF1FE85EFE4F859194919F878E87DF910C
:102D3000CF911F910895FF920F931F938C01F62E50
:102D4000862F61E00E9495198F2D61E00E94D419B1
:102D50008F2D90E0FC01EA5CFE4FE491D801509683
:102D6000EC9350978E5D9E4FFC016491E62FF0E04E
:102D7000EE0FFF1FE25FFE4F8591949152969C9358
:102D80008E9351971F910F91FF900895FF920F938B
:102D90001F938C01F62EFC011382128288EE93E0C1
:102DA000A0E0B0E084839583A683B78380EA92E0B5
:102DB00091838083148A138A168A158A108E178A43
:102DC000128E118E838D2170220F8C7F822B838F28
:102DD000C801642F0E949B16C8016F2D0E947016B7
:102DE0001F910F91FF9008950F931F93CF93DF933F
:102DF000BC018230910510F462E070E0E091D304F0
:102E0000F091D404A0E0B0E040E050E024C0808124
:102E1000918186179707D0F08617970771F4828102
:102E20009381109729F013969C938E9312972CC040
:102E30009093D4048093D30427C04115510519F011
:102E40008417950718F4EF018D01AC01DF01828131
:102E500093819C01F9013097D1F641155105F9F0A4
:102E6000CA01861B970B8430910580F48A819B816F
:102E70000115110521F0F8019383828304C090931A
:102E8000D4048093D304FE01329645C0FE01E80FBE
:102E9000F91F619371930297998388833CC0809155
:102EA000D1049091D204892B41F4809157029091E2
:102EB00058029093D2048093D104409159025091CA
:102EC0005A024115510541F44DB75EB78091550244
:102ED00090915602481B590B2091D1043091D20495
:102EE00024173507B0F4CA01821B930B8617970786
:102EF00080F0AB014E5F5F4F8417950750F0420F93
:102F0000531F5093D2044093D104F90161937193FC
:102F100002C0E0E0F0E0CF01DF91CF911F910F916F
:102F20000895CF93DF939C01009709F48FC0EC01C3
:102F300022971B821A826091D3047091D404611588
:102F4000710581F488819981820F931F2091D104AA
:102F50003091D2042817390739F5D093D204C093A1
:102F6000D10474C0DB0140E050E0AC17BD0708F1AC
:102F7000BB83AA83FE0121913191E20FF31FAE17AB
:102F8000BF0779F48D919C911197280F391F2E5FFF
:102F90003F4F3983288312968D919C9113979B8381
:102FA0008A834115510571F4D093D404C093D3049E
:102FB0004DC012968D919C911397AD01009711F021
:102FC000DC01D3CFDA011396DC93CE931297FA018A
:102FD00021913191E20FF31FCE17DF0769F4888149
:102FE0009981280F391F2E5F3F4FFA0131832083CB
:102FF0008A819B8193838283E0E0F0E0DB0112967B
:103000008D919C911397009719F0BC01FD01F6CFAB
:10301000AB014E5F5F4FDB018D919C91840F951F3B
:103020002091D1043091D2042817390779F43097D0
:1030300029F41092D4041092D30402C01382128295
:10304000425050405093D2044093D104DF91CF912D
:1030500008951F920F920FB60F9211242F933F9352
:103060008F939F93AF93BF938091220490912304F9
:10307000A0912404B0912504309126040196A11D4D
:10308000B11D232F2D5F2D3720F02D570196A11D47
:10309000B11D209326048093220490932304A093CF
:1030A0002404B093250480911E0490911F04A091E4
:1030B0002004B09121040196A11DB11D80931E042E
:1030C00090931F04A0932004B0932104BF91AF916B
:1030D0009F918F913F912F910F900FBE0F901F9056
:1030E00018958FB7F89420912204309123044091D1
:1030F0002404509125048FBFB901CA0108959B0192
:10310000AC017FB7F89480911E0490911F04A091A8
:103110002004B091210466B5A89B05C06F3F19F04B
:103120000196A11DB11D7FBFBA2FA92F982F882707
:10313000860F911DA11DB11D62E0880F991FAA1F66
:10314000BB1F6A95D1F7BC012DC0FFB7F8948091E1
:103150001E0490911F04A0912004B0912104E6B5B3
:10316000A89B05C0EF3F19F00196A11DB11DFFBF3F
:10317000BA2FA92F982F88278E0F911DA11DB11D41
:10318000E2E0880F991FAA1FBB1FEA95D1F7861BA3
:10319000970B885E9340C8F2215030404040504029
:1031A00068517C4F211531054105510571F608958F
:1031B000789484B5826084BD84B5816084BD85B512
:1031C000826085BD85B5816085BDEEE6F0E08081D9
:1031D00081608083E1E8F0E01082808182608083FA
:1031E000808181608083E0E8F0E08081816080837D
:1031F000E1EBF0E0808184608083E0EBF0E08081AF
:1032000081608083EAE7F0E0808184608083808150
:1032100082608083808181608083808180688083F8
:103220001092C1000895982F8E3008F09E5097702C
:1032300080915B028295880F880F807C892B809318
:103240007C0080917A00806480937A0080917A007B
:1032500086FDFCCF2091780040917900942F80E08A
:1032600030E0282B392BC90108951F93CF93DF93AA
:10327000182FEB0161E00E949519209709F44AC0CC
:10328000CF3FD10509F449C0E12FF0E0E65BFE4FE6
:1032900084918330C1F0843028F4813051F0823041
:1032A000B1F50CC0863019F1873049F1843079F5D9
:1032B00014C084B5806884BDC7BD33C084B5806246
:1032C00084BDC8BD2EC0809180008068809380003E
:1032D000D0938900C093880024C0809180008062D0
:1032E00080938000D0938B00C0938A001AC0809195
:1032F000B00080688093B000C093B30012C080918A
:10330000B00080628093B000C093B4000AC0C0389F
:10331000D1051CF4812F60E002C0812F61E00E9482
:10332000D419DF91CF911F910895CF93DF93482F48
:1033300050E0CA018A5C9E4FFC0134914E5D5E4FA5
:10334000FA018491882369F190E0880F991FFC01AC
:10335000EC5FFE4FA591B491FC01E25FFE4FC59179
:10336000D491662351F42FB7F8948C91932F9095B4
:1033700089238C93888189230BC0623061F42FB735
:10338000F8948C91932F909589238C938881832B2B
:1033900088832FBF06C09FB7F8948C91832B8C93A2
:1033A0009FBFDF91CF910895482F50E0CA01865BFF
:1033B0009E4FFC012491CA018A5C9E4FFC019491AE
:1033C0004E5D5E4FFA013491332309F440C022234D
:1033D00051F1233071F0243028F42130A1F0223053
:1033E00011F514C02630B1F02730C1F02430D9F4E3
:1033F00004C0809180008F7703C0809180008F7D12
:103400008093800010C084B58F7702C084B58F7D13
:1034100084BD09C08091B0008F7703C08091B00057
:103420008F7D8093B000E32FF0E0EE0FFF1FE25F8F
:10343000FE4FA591B4912FB7F894662321F48C9197
:103440009095892302C08C91892B8C932FBF08956E
:10345000682F70E0CB01865B9E4FFC012491CB016D
:103460008A5C9E4FFC0144916E5D7E4FFB019491FE
:10347000992319F420E030E03CC0222351F123309D
:1034800071F0243028F42130A1F0223011F514C05D
:103490002630B1F02730C1F02430D9F404C0809137
:1034A00080008F7703C0809180008F7D80938000A3
:1034B00010C084B58F7702C084B58F7D84BD09C0EC
:1034C0008091B0008F7703C08091B0008F7D809392
:1034D000B000892F90E0880F991F885E9E4FFC01F5
:1034E000A591B4918C9120E030E0842311F021E08B
:1034F00030E0C901089508951F920F920FB60F9200
:1035000011242F933F934F938F939F93EF93FF93A8
:103510008091C00082FD1DC04091C60020916704CB
:10352000309168042F5F3F4F2F7330708091690492
:1035300090916A042817390771F0E0916704F091BF
:103540006804E95DFB4F408330936804209367046F
:1035500002C08091C600FF91EF919F918F914F9192
:103560003F912F910F900FBE0F901F901895E091F3
:10357000BB04F091BC04E05CFF4F819191912081EC
:103580003181821B930B8F739070892B11F00E94F5
:103590007B1A08951F920F920FB60F9211242F934A
:1035A0003F938F939F93EF93FF932091AB043091C0
:1035B000AC048091AD049091AE042817390731F422
:1035C0008091C1008F7D8093C10014C0E091AD0453
:1035D000F091AE04E559FB4F20818091AD049091AC
:1035E000AE0401968F7390709093AE048093AD04F7
:1035F0002093C600FF91EF919F918F913F912F9162
:103600000F900FBE0F901F901895AF92BF92DF9250
:10361000EF92FF920F931F93CF93DF93EC017A0108
:103620008B01DD24403081EE580780E0680780E0A0
:10363000780711F0DD24D39491E0A92EB12CEC8908
:10364000FD89DD2069F0C50108A002C0880F991F1F
:103650000A94E2F7808360E079E08DE390E005C0B2
:10366000108260E874E88EE190E0A80197010E9462
:10367000852621503040404050405695479537951B
:10368000279580E12030380720F0DD2011F0DD247F
:10369000D6CFE889F9893083EA89FB89208319A28A
:1036A000EE89FF89408121E030E0C9010C8C02C025
:1036B000880F991F0A94E2F7482B4083EE89FF890F
:1036C0004081C9010D8C02C0880F991F0A94E2F74E
:1036D000482B4083EE89FF894081C9010E8C02C0CE
:1036E000880F991F0A94E2F7482B4083EE89FF89DF
:1036F00080810F8C02C0220F331F0A94E2F72095BD
:1037000028232083DF91CF911F910F91FF90EF909D
:10371000DF90BF90AF900895DC011C96ED91FC9175
:103720001D97E05CFF4F2191319180819181281B91
:10373000390B2F733070C9010895DC011C96ED918F
:10374000FC911D97E05CFF4F20813181E054F040F7
:10375000DF01AE5BBF4F8D919C9111972817390700
:1037600019F42FEF3FEF07C08D919C91E80FF91FDF
:103770008081282F30E0C9010895DC011C96ED916D
:10378000FC911D97E05CFF4F20813181E054F040B7
:10379000DF01AE5BBF4F8D919C91119728173907C0
:1037A00019F42FEF3FEF10C08D919C911197E80F06
:1037B000F91F20818D919C91119701968F739070C4
:1037C00011969C938E9330E0C9010895DC01919687
:1037D0008C919197882339F05496ED91FC915597EF
:1037E000808186FFF9CF91961C920895CF93DF9345
:1037F000EC01EE85FF85E05CFF4F20813181E054D4
:10380000F0402F5F3F4F2F733070DF01AE5BBF4F33
:103810008D919C91119728173907D1F3E05CFF4FE8
:1038200080819181E054F040E80FF91F6083EE85BC
:10383000FF85E05CFF4F31832083EE89FF89208183
:1038400081E090E00F8C02C0880F991F0A94E2F784
:10385000282B208381E089A3EC89FD898081806405
:10386000808381E090E0DF91CF9108951092B204BF
:103870001092B10488EE93E0A0E0B0E08093B3042E
:103880009093B404A093B504B093B60480EB92E097
:103890009093B0048093AF0487E294E09093BC04CB
:1038A0008093BB048BE694E09093BE048093BD04A8
:1038B00085EC90E09093C0048093BF0484EC90E08A
:1038C0009093C2048093C10480EC90E09093C40470
:1038D0008093C30481EC90E09093C6048093C50468
:1038E00082EC90E09093C8048093C70486EC90E04B
:1038F0009093CA048093C90484E08093CB0483E04E
:103900008093CC0487E08093CD0485E08093CE043F
:1039100081E08093CF040895CF93DF930E94D8185D
:103920000E942211C7EBDAE10E9469132097E1F3AC
:103930000E94B71AF9CFCF92DF92EF92FF920F93C6
:103940001F93CF93DF937C016B018A01C0E0D0E02D
:103950000FC0D6016D916D01D701ED91FC910190E1
:10396000F081E02DC7010995C80FD91F0150104003
:103970000115110571F7CE01DF91CF911F910F91C4
:10398000FF90EF90DF90CF900895EF92FF920F930A
:103990001F938C01DC01ED91FC910190F081E02DF1
:1039A0006DE009957C01D801ED91FC910190F081C9
:1039B000E02DC8016AE009959C012E0D3F1DC9014B
:1039C0001F910F91FF90EF900895EF92FF920F9348
:1039D0001F937C01DC01ED91FC910190F081E02DC1
:1039E00009958C01C7010E94C51C080F191FC80149
:1039F0001F910F91FF90EF900895CF93DF93EC010B
:103A00006115710519F420E030E00FC0DB010D9065
:103A10000020E9F71197A61BB70BE881F981028016
:103A2000F381E02DAD0109959C01C901DF91CF9192
:103A300008954F925F927F928F929F92AF92BF9222
:103A4000CF92DF92EF92FF920F931F93DF93CF936A
:103A5000CDB7DEB7A1970FB6F894DEBF0FBECDBFCE
:103A60002C01742ECB01223008F42AE019A231E295
:103A7000C32ED12CCC0EDD1E822E9924AA24BB2469
:103A8000672D752FA50194010E94852679018A0171
:103A9000C801B701A50194010E944726472D461B86
:103AA0000894C108D1084A3014F4405D01C0495C53
:103AB000F6014083E114F1040105110521F07E2C8B
:103AC0005F2DC801DDCFC201B6010E94FD1CA19689
:103AD0000FB6F894DEBF0FBECDBFCF91DF911F911F
:103AE0000F91FF90EF90DF90CF90BF90AF909F909D
:103AF0008F907F905F904F900895DC0121153105E4
:103B000041F4ED91FC910190F081E02D642F099535
:103B100008950E94191D0895CF92DF92EF92FF92AF
:103B20000F931F936C017B019A0100E010E0B80134
:103B3000A7010E947D1D8C01C6010E94C51C080FB3
:103B4000191FC8011F910F91FF90EF90DF90CF9048
:103B50000895CF92DF92EF92FF920F931F93CF932E
:103B6000DF93EC016A017B012115310541F4E88105
:103B7000F9810190F081E02D642F09951FC02A3052
:103B80003105D1F477FF17C0E881F9810190F08108
:103B9000E02D6DE209958C0144275527BA014C1997
:103BA0005D096E097F09CE012AE00E94191D980166
:103BB000280F391F04C02AE00E94191D9C01C90169
:103BC000DF91CF911F910F91FF90EF90DF90CF90F9
:103BD0000895EF92FF920F931F937B019A010027A4
:103BE000F7FC0095102FB801A7010E94A91D1F9195
:103BF0000F91FF90EF900895CF92DF92EF92FF9296
:103C00000F931F936C017B019A010027F7FC00952D
:103C1000102FB801A7010E94A91D8C01C6010E94A6
:103C2000C51C080F191FC8011F910F91FF90EF903D
:103C3000DF90CF9008950E94FD1C08957F928F928F
:103C40009F92AF92BF92CF92DF92EF92FF920F932B
:103C50001F93CF93DF934C017A018B01722ECB011E
:103C6000BA01A80197010E944326882321F0C401CC
:103C700062E472E021C0C0E0D0E057016801E8943E
:103C8000D7F8C601B5012FEF3FEF4FE75FE70E947E
:103C90004326882351F4C601B5012FEF3FEF4FE7CC
:103CA0005FE70E948D24181614F0C1E0D0E0219740
:103CB00039F0C40166E472E00E94FD1CEC0193C07F
:103CC000C801B7012FEF3FEF4FE75FE40E94DC250B
:103CD000181654F0C801B7012FEF3FEF4FE75FEC24
:103CE0000E948D24882324F4C4016AE472E0E4CFA6
:103CF000C801B70120E030E040E050E00E948D2490
:103D000087FD03C0C0E0D0E00EC0D401ED91FC916E
:103D10000190F081E02DC4016DE20995EC0117FBE3
:103D2000109517F9109520E030E040E05FE3DD24C6
:103D30000BC0CA01B90120E030E040E251E40E942A
:103D400091249B01AC01D394D71498F3C801B70117
:103D50000E9429245B016C010E94FE247B018C01DE
:103D6000C401B801A7012AE030E00E947D1DC80F00
:103D7000D91F772039F0C4016EE472E00E94FD1C67
:103D8000C80FD91FC801B7010E942A259B01AC01A9
:103D9000C601B5010E94282424C020E030E040E2A2
:103DA00051E40E94E0257B018C010E94F9245B0113
:103DB0006C01CC24B7FCC094DC2CC401B601A50175
:103DC0002AE030E00E94A91DC80FD91FC601B50125
:103DD0000E942C259B01AC01C801B7010E94282438
:103DE0007A947720D1F6CE01DF91CF911F910F9178
:103DF000FF90EF90DF90CF90BF90AF909F908F900B
:103E00007F9008950E941E1E0895EF92FF920F93D7
:103E10001F937C010E941E1E8C01C7010E94C51CBD
:103E2000080F191FC8011F910F91FF90EF9008957F
:103E3000EF92FF920F931F937C010E94FD1C8C0157
:103E4000C7010E94C51C080F191FC8011F910F91BF
:103E5000FF90EF900895AF92BF92CF92DF92EF92D2
:103E6000FF920F931F93CF93DF935C016B01EE24BE
:103E7000FF24C0E0D0E010C0D501ED91FC9100819D
:103E80001181C601BE010E94721F682FC501F80191
:103E90000995E80EF91E2196F60184819581C817CF
:103EA000D90750F3C701DF91CF911F910F91FF9078
:103EB000EF90DF90CF90BF90AF900895EF92FF9278
:103EC0000F931F937C010E942B1F8C01C7010E943E
:103ED000C51C9C01200F311FC9011F910F91FF903C
:103EE000EF900895FC01848195816817790748F463
:103EF0000190F081E02D309721F0E60FF71F8081CF
:103F0000089580E00895CF92DF92EF92FF920F9391
:103F10001F93CF93DF936C01DC01ED90FC90119720
:103F2000E114F10409F441C01496CD91DC91159788
:103F30002097D9F1870102C00F5F1F4FF8018081E0
:103F4000992787FD90950E94C126892BA9F7219773
:103F5000CE0DDF1D01C021978881992787FD90959F
:103F60000E94C126892B19F0C017D107A0F7FE01C6
:103F70003196E01BF10BD6011596FC93EE93149746
:103F80002D913C912017310728F4C901B801AF01E8
:103F90000E941D01D601ED91FC91119714968D910F
:103FA0009C911597E80FF91F1082DF91CF911F9117
:103FB0000F91FF90EF90DF90CF900895EF92FF92D6
:103FC0000F931F93CF93DF93FC01DB0186179707B5
:103FD00039F12481358114968D919C91159728177C
:103FE000390701F5232BE1F0E080F180CD91DC91E0
:103FF00013C0992787FD90950E94C9268C0188815E
:10400000992787FD90950E94C9260817190751F432
:104010000894E11CF11C2196F7018081882349F75F
:1040200081E001C080E0DF91CF911F910F91FF905F
:10403000EF900895AF92BF92CF92DF92EF92FF92EE
:104040000F931F93CF93DF93FC015B017A01DB0198
:1040500014962D913C9115972115310559F18481C4
:104060009581009739F18217930720F14817590776
:1040700020F07C010894E108F10800811181C80159
:10408000CFEFDFEF6801CE0CDF1C10C0F5016081BF
:1040900071810E9457019C01009771F0801B910B68
:1040A000E816F90608F0EC01C9010196C816D90610
:1040B00068F702C0CFEFDFEFCE01DF91CF911F9104
:1040C0000F91FF90EF90DF90CF90BF90AF90089549
:1040D000CF93DF93FC01DB01848195814817590759
:1040E00060F4C081D1816D917C91CE01840F951FC8
:1040F0000E9457019C01009719F42FEF3FEF02C077
:104100002C1B3D0BC901DF91CF91089540E050E099
:104110000E94682008950F931F93CF93DF93FC01B3
:104120008B0141155105F9F061157105E1F08481AC
:1041300095812817390718F0FB01108214C04150EF
:104140005040EC01C21BD30B4C175D0708F4EA0189
:1041500060817181620F731FC801AE010E94480126
:10416000C00FD11F1882DF91CF911F910F91089539
:10417000DC01FB0114968D919C911597892B31F4EC
:1041800061157105A9F090E0808108C00D90BC9187
:10419000A02D6115710529F490E08C91882349F4D4
:1041A00007C0CD010E9438019C0190E0232B09F447
:1041B00091E0892F08950F931F93CF93DF93EC0124
:1041C0008B016F5F7F4F888199810E944723009701
:1041D00011F480E005C0998388831B830A8381E002
:1041E000DF91CF911F910F9108952F923F924F929F
:1041F0005F926F927F928F929F92AF92BF92CF9277
:10420000DF92EF92FF920F931F93CF93DF935C01A6
:104210002B014A01DC0114960D911C911597011593
:10422000110509F4D4C0FB01C480D580C114D104A8
:1042300009F4CDC0DA0114966D907C9015976C1836
:104240007D08FC01E080F1806114710491F01BC0D5
:10425000D4016C9111967C91119714964D915C91BB
:1042600015978C2F0E941D01F401E480F580EC0E5F
:10427000FD1ED2016D917C91C7010E945701EC0196
:10428000009731F7A4C077FE02C067012EC0FB0182
:1042900020803180E8013CC08E010E191F09C60143
:1042A000B701A8010E941D010C0D1D1DD4016C91C8
:1042B00011967C91119714964D915C911597C801B8
:1042C0000E941D01F401C480D580C00ED11ED20110
:1042D0001496ED90FC901597EC0EFD1EF50184816F
:1042E0009581860D971D95838483D2016D917C9174
:1042F000C7010E945701EC01009771F6C601B70192
:104300000E94410164C07B01EC0CFD1CC60DD71D51
:10431000C701B1010E945701BC010097A1F7C01766
:10432000D10709F454C0F501828193818C179D0750
:1043300008F044C0C501BE010E94DB208823F1F5CE
:1043400046C0C501B201A9010E941A20EC0197FDE7
:104350003EC0D5016D917C911197F20184819581C8
:104360008C0F9D1F680F791F14964D915C911597C6
:10437000481B590BCB01860D971D0E942601D501C4
:1043800014968D919C911597860D971D15969C936B
:104390008E931497ED91FC911197E80FF91F1082FD
:1043A0002D913C912C0F3D1FF4016081718144815E
:1043B0005581C9010E941D019E0105C0D5011496B9
:1043C0002D913C9115972150304037FFBACFDF91A6
:1043D000CF911F910F91FF90EF90DF90CF90BF9002
:1043E000AF909F908F907F906F905F904F903F9095
:1043F0002F900895CF93DF93EC0188819981892BC9
:1044000029F08A819B818617970760F4CE010E946C
:10441000DB20882341F08C819D81892B19F4E88170
:10442000F981108281E0DF91CF910895EF92FF92A0
:104430000F931F93CF93DF93EC017B016C817D8100
:10444000E114F104C1F04115510599F08A01060FFC
:10445000171FB8010E94FA21882369F08881998189
:104460002C813D81820F931FB7010E9441011D8362
:104470000C8381E001C080E0DF91CF911F910F910B
:10448000FF90EF900895DF93CF9300D0CDB7DEB7C4
:1044900069831A82BE016F5F7F4F41E050E00E9446
:1044A00016220F900F90CF91DF910895611571053D
:1044B00011F480E00895DB010D900020E9F71197D9
:1044C000A61BB70BAD010E9416220895CF93DF9370
:1044D000EC0188819981009711F00E94911719824F
:1044E00018821D821C821B821A82DF91CF9108954F
:1044F000EF92FF920F931F93CF93DF93EC017B0119
:104500008A01BA010E94FA21882321F4CE010E9477
:10451000662207C01D830C8388819981B7010E94A0
:104520004101CE01DF91CF911F910F91FF90EF904C
:104530000895CF93DF93EC01198218821B821A82AF
:104540001D821C821E826115710551F0DB010D90E8
:104550000020E9F71197A61BB70BAD010E94782246
:10456000DF91CF9108950F931F93182F092F611595
:10457000710559F0DB010D900020E9F71197A61B9A
:10458000B70BAD010E94782202C00E946622812FE3
:10459000902F1F910F910895BF92CF92DF92EF92CB
:1045A000FF920F931F93CF93DF93082FB92E6B01C8
:1045B0007A01E9012417350710F4EA017901802F07
:1045C0009B2D60E572E00E949922D60114968D9190
:1045D0009C9115978E159F05D0F08C179D0708F4B8
:1045E000EC01D601ED91FC911197EC0FFD1F1081AC
:1045F00010826D917C916E0D7F1D802F9B2D0E94EE
:10460000B322D601ED91FC91EC0FFD1F1083802F9A
:104610009B2DDF91CF911F910F91FF90EF90DF9035
:10462000CF90BF9008950F931F938C01FB012481BD
:1046300035810E94CC22C8011F910F910895CF931C
:10464000DF93EC01FB018617970761F060817181B0
:104650006115710529F0448155810E94782202C0BC
:104660000E946622CE01DF91CF910895FC01118254
:104670001082138212821582148216820E941F23D6
:104680000895FC01808191810E94911708956F9295
:104690007F928F929F92AF92BF92CF92DF92EF92D2
:1046A000FF920F931F93CF93DF938C01009729F410
:1046B000CB010E94F4168C01BBC08EEFE82E8FEF69
:1046C000F82EE00EF11E4801860E971E8E149F04F0
:1046D00008F4ACC0D7014D915C911197461757076C
:1046E000B8F04530510508F4A3C0CA0104978617F5
:1046F000970708F49DC042505040461B570BF401E9
:10470000419351936D937C93CF010E94911790C078
:104710005B01A41AB50A3801640E751EA091D3047A
:10472000B091D404CC24DD24E0E0F0E047C0A6152D
:10473000B705A9F5CD91DC911197CE0102968A15A6
:104740009B0568F1CE018A199B09029612962C915D
:10475000129713963C91059758F0F4012283338306
:10476000CA19DB09D183C083D7016D937C9309C03B
:104770004E5F5F4F4C0F5D1FF70151834083C901AE
:10478000FC01C114D10431F0D6011396FC93EE93D1
:1047900012974EC0F093D404E093D30449C08D9196
:1047A0009C911197E817F90708F4FC016D01129626
:1047B0008C91129713969C919C01D901109709F046
:1047C000B6CF8091D1049091D20486159705E9F473
:1047D000E617F707D0F42091590230915A022115BB
:1047E000310541F42DB73EB78091550290915602A4
:1047F000281B390B82169306C8F49092D20480923B
:10480000D104F7017183608313C0CB010E94F416B9
:10481000EC01009759F0D7014D915C91B8010E94CD
:104820001D01C8010E9491178E0102C000E010E036
:10483000C801DF91CF911F910F91FF90EF90DF9012
:10484000CF90BF90AF909F908F907F906F90089582
:104850005058BB27AA270ED075C166D130F06BD156
:1048600020F031F49F3F11F41EF45BC10EF4E0958B
:10487000E7FB51C1E92F77D180F3BA1762077307BD
:104880008407950718F071F49EF58FC10EF4E0953A
:104890000B2EBA2FA02D0B01B90190010C01CA01FA
:1048A000A0011124FF27591B99F0593F50F4503EA5
:1048B00068F11A16F040A22F232F342F4427585F97
:1048C000F3CF469537952795A795F0405395C9F7AF
:1048D0007EF41F16BA0B620B730B840BBAF0915067
:1048E000A1F0FF0FBB1F661F771F881FC2F70EC006
:1048F000BA0F621F731F841F48F4879577956795D9
:10490000B795F7959E3F08F0B3CF9395880F08F0C1
:104910009927EE0F979587950895D9D008F481E0EF
:1049200008950CD00FC107D140F0FED030F021F433
:104930005F3F19F0F0C0511139C1F3C014D198F3A1
:104940009923C9F35523B1F3951B550BBB27AA2710
:1049500062177307840738F09F5F5F4F220F331F82
:10496000441FAA1FA9F333D00E2E3AF0E0E830D04E
:1049700091505040E695001CCAF729D0FE2F27D051
:10498000660F771F881FBB1F261737074807AB071F
:10499000B0E809F0BB0B802DBF01FF2793585F4F94
:1049A0002AF09E3F510568F0B6C000C15F3FECF3AE
:1049B000983EDCF3869577956795B795F7959F5F59
:1049C000C9F7880F911D9695879597F90895E1E0AD
:1049D000660F771F881FBB1F621773078407BA070C
:1049E00020F0621B730B840BBA0BEE1F88F7E09567
:1049F000089504D06894B111D9C00895BCD088F04E
:104A00009F5790F0B92F9927B751A0F0D1F0660FBA
:104A1000771F881F991F1AF0BA95C9F712C0B130D5
:104A200081F0C3D0B1E00895C0C0672F782F8827E8
:104A3000B85F39F0B93FCCF3869577956795B39514
:104A4000D9F73EF490958095709561957F4F8F4F83
:104A50009F4F0895E89409C097FB3EF49095809588
:104A6000709561957F4F8F4F9F4F9923A9F0F92F34
:104A700096E9BB279395F695879577956795B795B2
:104A8000F111F8CFFAF4BB0F11F460FF1BC06F5F98
:104A90007F4F8F4F9F4F16C0882311F096E911C0AA
:104AA000772321F09EE8872F762F05C0662371F0CB
:104AB00096E8862F70E060E02AF09A95660F771FDF
:104AC000881FDAF7880F9695879597F90895990FBB
:104AD0000008550FAA0BE0E8FEEF16161706E807C8
:104AE000F907C0F012161306E407F50798F0621BE9
:104AF000730B840B950B39F40A2661F0232B242BBE
:104B0000252B21F408950A2609F4A140A6958FEFDC
:104B1000811D811D089597F99F6780E870E060E02E
:104B200008959FEF80EC089500240A941616170646
:104B300018060906089500240A941216130614068E
:104B400005060895092E0394000C11F4882352F0F1
:104B5000BB0F40F4BF2B11F460FF04C06F5F7F4FA9
:104B60008F4F9F4F089557FD9058440F551F59F090
:104B70005F3F71F04795880F97FB991F61F09F3F4A
:104B800079F087950895121613061406551FF2CF73
:104B90004695F1DF08C0161617061806991FF1CFC3
:104BA00086957105610508940895E894BB276627EA
:104BB0007727CB0197F908958ADF08F48FEF0895DE
:104BC0000BD0C0CFB1DF28F0B6DF18F0952309F085
:104BD000A2CFA7CF1124EACFC6DFA0F3959FD1F3D0
:104BE000950F50E0551F629FF001729FBB27F00D9B
:104BF000B11D639FAA27F00DB11DAA1F649F6627F0
:104C0000B00DA11D661F829F2227B00DA11D621F3E
:104C1000739FB00DA11D621F839FA00D611D221FF8
:104C2000749F3327A00D611D231F849F600D211DDC
:104C3000822F762F6A2F11249F5750408AF0E1F07F
:104C400088234AF0EE0FFF1FBB1F661F771F881FC8
:104C500091505040A9F79E3F510570F05CCFA6CF10
:104C60005F3FECF3983EDCF3869577956795B795B3
:104C7000F795E7959F5FC1F7FE2B880F911D9695DD
:104C8000879597F9089523DF880B990B0895629F04
:104C9000D001739FF001829FE00DF11D649FE00D34
:104CA000F11D929FF00D839FF00D749FF00D659F95
:104CB000F00D9927729FB00DE11DF91F639FB00D94
:104CC000E11DF91FBD01CF0111240895991B79E061
:104CD00004C0991F961708F0961B881F7A95C9F78C
:104CE0008095089597FB092E07260AD077FD04D0FA
:104CF0002ED006D000201AF4709561957F4F08954C
:104D0000F6F7909581959F4F0895A1E21A2EAA1B60
:104D1000BB1BFD010DC0AA1FBB1FEE1FFF1FA2176B
:104D2000B307E407F50720F0A21BB30BE40BF50B68
:104D3000661F771F881F991F1A9469F760957095F1
:104D4000809590959B01AC01BD01CF010895AA1BF0
:104D5000BB1B51E107C0AA1FBB1FA617B70710F066
:104D6000A61BB70B881F991F5A95A9F78095909598
:104D7000BC01CD010895EE0FFF1F0590F491E02DC9
:104D8000099491110EC0803219F089508550D0F7E6
:104D900008959111089581548A5108F4805E855ACE
:104DA00008959927882708952F923F924F925F92F6
:104DB0006F927F928F929F92AF92BF92CF92DF922B
:104DC000EF92FF920F931F93CF93DF93CDB7DEB790
:104DD000CA1BDB0B0FB6F894DEBF0FBECDBF099424
:104DE0002A88398848885F846E847D848C849B847B
:104DF000AA84B984C884DF80EE80FD800C811B8189
:104E0000AA81B981CE0FD11D0FB6F894DEBF0FBEB7
:104E1000CDBFED01089511E0C2E6D1E004C0FE016E
:104E20000E94BD262296C436D107C9F7F894FFCF59
:104E300041542B434D47443D0000415444003B0D39
:104E40000A002C0041542B434D474C3D22414C4C11
:104E5000220D0A0041542B434D47463D310D004180
:104E6000542B434D47533D2200220041542B434DC8
:104E70004744413D2244454C2053454E54220D0A9F
:104E8000006368617267696E672C00646973636FA1
:104E90006E6E65637465642C007465737420706154
:104EA000737365640074657374206661696C65640E
:104EB0000041542B434D47523D000D0A004D657390
:104EC00073616765206D657461646174613A200087
:104ED0004D65737361676520636F6E74656E743AB8
:104EE000200054696D65205374616D703A2000464E
:104EF000726F6D204E756D6265723A200020006CF5
:104F0000656E6774683A20007465787400636F6E2C
:104F10006E65637400646973636F6E6E65637400BD
:104F2000737461747573007465737400696E73745F
:104F3000616E74616E656F7573006C6F61640043C0
:104F40004D54490041542B4350494E3F0045525265
:104F50004F52004E4F540054696E7950697065731A
:104F600020697320626F6F74696E672075702E2ED2
:104F70002E006E616E00696E66006F7666002E0010
:104F800000000048428000D504000001000080407D
:104F90000000604000004040000020400000004051
:104FA0000000C03F0000803F0000003F000088413B
:104FB00000008641000084410000824100008041E1
:104FC00000007841000070410000684100000000CE
:104FD00091159B1C7A155B155416431600000000B2
:0C4FE000F61B9B1C8C1BBD1B9D1BE61BC5
:00000001FF
